:020000040800F2
:100000009805002039010008E30A0008B90A000831
:10001000E10A00082D080008C110000800000000D7
:100020000000000000000000000000003D0C00087F
:10003000E909000800000000490B00081D0D000838
:100040005301000853010008530100085301000840
:100050005301000853010008530100085301000830
:100060005301000853010008530100085301000820
:100070005301000853010008530100085301000810
:100080005301000853010008530100085301000800
:1000900053010008530100085301000853010008F0
:1000A00053010008530100085301000853010008E0
:1000B00053010008750D0008B90D00085301000830
:1000C00053010008530100085301000853010008C0
:1000D00053010008010F000853010008350F000804
:1000E00053010008530100085301000853010008A0
:1000F00053010008000000005301000853010008EC
:100100000000000000000000530100085301000837
:10011000530100085301000853010008530100086F
:1001200053010008DFF80CD000F03CF8004800470D
:1001300079120008980500200648804706480047C5
:10014000FEE7FEE7FEE7FEE7FEE7FEE7FEE7FEE787
:10015000FEE7FEE7210D00082501000840EA010343
:100160009B0703D009E008C9121F08C0042AFAD26D
:1001700003E011F8013B00F8013B521EF9D2704731
:1001800030B505462A460B4612F8010B13F8014B11
:1001900008B1A042F8D01CB1002802D06D1CF1E7D4
:1001A000284630BD064C074D06E0E06840F00103EC
:1001B00094E8070098471034AC42F6D3FFF7B6FF37
:1001C000F41400081415000810B520A000F07AFF00
:1001D0004FF49674204600F009FC20A000F072FF56
:1001E000204600F003FC21A000F06CFF204600F048
:1001F000FDFB22A000F066FF4FF4487000F0F6FB14
:1002000025A2392129A000F05DFF204600F0EEFB79
:1002100030A13148FFF7B4FF304C03E02DA12E4848
:10022000FFF7AEFF20600028F8D000F001FB0020AF
:10023000294902460A54401CC0B26428FAD3BDE8DA
:1002400010404FF4FA7000F0D1BB000041542B4E27
:10025000534F434C3D300D0A0000000041542B4EDB
:10026000534F434C3D310D0A0000000041542B4ECA
:10027000534F434C3D320D0A0000000041542B4EB9
:10028000534F43523D444752414D2C31372C383067
:1002900032302C310D0A00003641323732423146BD
:1002A00035343146333133323333000041542B4E31
:1002B000534F53543D312C3132302E32342E31389D
:1002C000342E3132342C383031302C25632C2573C8
:1002D0000D0A00004F4B0000D00000200400002059
:1002E0002DE9F04189A000F0EDFE4FF49675284607
:1002F00000F07CFB87A18848FFF742FF874C206015
:1003000000F096FA20680CE000F092FA7FA000F06E
:10031000D9FE284600F06AFB7EA17F48FFF730FF38
:1003200020600028F0D07E4E012086F87B007DA062
:1003300000F0C8FE284600F059FB7DA17648FFF783
:100340001FFF206000F074FA20680CE000F070FAE3
:1003500074A000F0B7FE284600F048FB74A16E4878
:10036000FFF70EFF20600028F0D072A000F0AAFE78
:10037000284600F03BFB67A16748FFF701FF2060BC
:1003800000F056FA20680CE000F052FA69A000F084
:1003900099FE284600F02AFB5EA15F48FFF7F0FEB9
:1003A00020600028F0D067A000F08CFE284600F006
:1003B0001DFB67A15848FFF7E3FE206000F038FA04
:1003C00020680CE000F034FA5EA000F07BFE2846C6
:1003D00000F00CFB5EA15048FFF7D2FE2060002821
:1003E000F0D05EA000F06EFE284600F0FFFA5EA19D
:1003F0004948FFF7C5FE6FF02F072060B0B1817943
:100400004079303800EB800007EB40000844C0B270
:100410003070632803D0042086F87B0021E054A0CC
:1004200000F03EFE284600F0E1FAF8E700F000FA9E
:100430004AA000F047FE284600F0D8FA4AA1364804
:10044000FFF79EFE20600028F0D081794079303897
:1004500000EB800007EB40000844C0B23070632816
:1004600014D000F0E5F949A000F02CFE284600F079
:10047000BDFA49A12848FFF783FE206049A126481C
:10048000FFF77EFE606000F0D3F919E038A000F0BD
:1004900007FE284600F0AAFAF8E700BF00F0C8F906
:1004A0003AA000F00FFE284600F0A0FA3AA11A4840
:1004B000FFF766FE20603BA11748FFF761FE606012
:1004C000D4E900010843E9D039A000F0FBFD28463B
:1004D00000F08CFA0FA11048FFF752FE206000F0E8
:1004E000A7F920680DE000BF00F0A2F930A000F0ED
:1004F000E9FD284600F07AFA06A10748FFF740FE1A
:10050000206061680843EFD0BDE8F08141540D0AD6
:10051000000000004F4B0000D0000020040000202D
:100520005400002041542B43494D490D0A0000005E
:100530003436300041542B43474154543D310D0A69
:100540000000000041542B43474154543F0D0A0022
:100550002B43474154543A310000000041542B438F
:1005600053510D0A000000002B43535100000000BE
:10057000D0C5BAC5CBD1CBF7CAA7B0DCA3ACC7EB0B
:10058000B2E9BFB4D4ADD2F2210D0A0041542B43DD
:10059000455245473F0D0A002B43455245473A30E7
:1005A0002C3100002B43455245473A312C31000095
:1005B00041542B43455245473D310D0A0000000090
:1005C00070B52CA000F07EFD4FF49675284600F023
:1005D0000DFA31A000F076FD284600F007FA32A0AF
:1005E00000F070FD284600F001FA32A13448FFF710
:1005F000C7FD344C206000F01BF920680DE000BFFF
:1006000000F016F928A000F05DFD284600F0EEF994
:100610002DA12B48FFF7B4FD20600028F0D02DA0BD
:1006200000F050FD284600F0E1F92DA12448FFF725
:10063000A7FD20602DA12248FFF7A2FD606000F019
:10064000F7F811E000F0F4F822A000F03BFD284696
:1006500000F0CCF922A11A48FFF792FD206023A1F7
:100660001748FFF78DFD6060D4E900010843E9D029
:1006700070BD000041542B434744434F4E543D311D
:100680002C224950222C224855415745492E434F90
:100690004D220D0A0000000041542B4347415454A1
:1006A0003D310D0A0000000041542B434741545492
:1006B0003F0D0A00202B43474154543A31000000BB
:1006C000D0000020040000202B43474154543A310D
:1006D0000000000041542B4353434F4E3F0D0A008E
:1006E0002B4353434F4E3A302C3100002B4353439E
:1006F0004F4E3A302C30000070B525A12748FFF747
:100700003FFD274D0028286040D000F091F829686F
:10071000244C087A607000200A18927A0D2A04D0BE
:100720002318401C9A70C0B2F6E76178A21C1EA084
:1007300000F0C8FC4FF4967000F058F91FA117485C
:10074000FFF71EFD28601DA1401CFFF719FD286062
:100750001AA1401CFFF714FD0021286042185278AE
:100760002C2A04D06318491C5A73C9B2F6E713A1A6
:10077000401CFFF705FD00212860421852782C2A02
:1007800004D06318491CDA75C9B2F6E770BD0000E1
:100790002B4E534F4E4D493A00000000D000002030
:1007A000040000205400002041542B4E534F524669
:1007B0003D25632C25730D0A000000002C0000006D
:1007C00010B50A4601460CA000F07CFC4FF4967070
:1007D00000F00CF912A11348FFF7D2FC124C03E011
:1007E0000FA11048FFF7CCFC20600028F8D0BDE82E
:1007F000104000F01DB8000041542B4E534F53548D
:100800003D312C3132302E32342E3138342E3132CB
:10081000342C383031302C25732C25730D0A000010
:100820004F4B0000D000002004000020FEE7000035
:1008300010B5034800F034FC02490020087010BDD8
:10084000D00000204500002070B5002400F028F8FA
:10085000124D04E0641CE4B2032000F0EDFC8021A2
:10086000284600F01AF910B1642CF3D30FE0642C81
:100870000DD2002404E0641CE4B2032000F0DCFC90
:100880008021284600F009F918B1642C04D3012016
:1008900070BD642CEFD3FAE7002070BD0000024069
:1008A0001CB58020009000208DF8040001208DF8F8
:1008B00007006946014800F0ADF81CBD0000024089
:1008C0001CB58020009001208DF804008DF80700F1
:1008D0006946024800F09EF81CBD0000000002407E
:1008E00010B50121084600F031F900F067F8BDE8C5
:1008F0001040FFF7A9BF000070B50024134D04E0BD
:10090000641CE4B2032000F097FC8021284600F02C
:10091000C4F808B1642CF3D3002404E0641CE4B2EE
:10092000032000F089FC8021284600F0B6F808B9C1
:10093000642CF3D3322000F07FFC8021284600F0A5
:10094000ACF8002800D0012070BD0000000002407B
:1009500070B5002004464006050EFFF7CDFF641C6D
:100960002843E4B2082CF6D370BD2DE9FC410D46B6
:10097000064600F023F8FFF767FF10B10120BDE83D
:10098000FC8100246F46FFF7E3FF3855641CE4B296
:10099000052CF8D39DF800109DF801009DF8033058
:1009A0000A189DF8020003441A449DF804309A4244
:1009B00001D1297030700020E1E7000010B5FFF789
:1009C0007FFF084C8021204600F06EF8142000F0D4
:1009D0001FFC8021204600F069F8BDE810401E2071
:1009E00000F02ABC00000240704700000849498816
:1009F00048434FF0E02148610020886101220A61EC
:100A00000A69D30701D0D203FAD50861886170471B
:100A10004A000020F0B5002301244FF0030E00BF70
:100A20000D6804FA03F21540954222D106685D0074
:100A30000EFA05FC0F7926EA0C06AF403743076033
:100A40000E79012E01D0022E0CD186684F7926EA4C
:100A50000C06AF4037438760868896438A799A4070
:100A600032438280C668CA7926EA0C06AA4032431D
:100A7000C2605B1C102BD3D3F0BD4B07DB0E9A403A
:100A8000C90810B500EB8100016A0F249C40A14306
:100A90000162016A1143016210BD02460020128A00
:100AA0000A4200D00120704741837047018370479C
:100AB000828A4A4082827047FEE700001CB501210D
:100AC000084600F043F801208DF8040048F20200C7
:100AD000009069460148FFF79DFF1CBD00000240E1
:100AE000FEE7704770B50F21C478027801234FF0FC
:100AF000E026E4B1124C246804F4E064C4F5E06438
:100B0000C4F30724C4F10405E1404478AC4085787F
:100B10000D4025430B4C29011155007800F01F01B1
:100B20008B40400906EB8000C0F8003170BD02F038
:100B30001F008340500906EB8000C0F8803170BD73
:100B40000CED00E000E400E070470000044A0029DA
:100B5000116801D0014300E081431160704700003B
:100B60001C380240044A0029116801D0014300E00A
:100B7000814311607047000024380240044A002974
:100B8000116801D0014300E081431160704700000B
:100B90002038024030B5254A1168A2F1040411F052
:100BA0000C034FF4004105D0042B09D0082B09D0C9
:100BB0000C2B09D02368C3F342335B1C994018E027
:100BC0001B4916E01B4914E01168136801F4701109
:100BD000194C03F4400304EB91410978012404EB20
:100BE0009353146814F4803F1DD0124C6143B1FB41
:100BF000F3F1016011680F2303EA11110E4B093361
:100C00005C5C0168E14041601468072505EA142432
:100C10001C5D21FA04F48460126805EAD2229A5C11
:100C2000D140C16030BD024CE0E70000083802400E
:100C30000024F40000127A000C000020704700002D
:100C40000CB500202C49019000900A6842F48032D3
:100C50000A604FF4A0430A6802F400320092019A3D
:100C6000521C0192009A12B9019A9A42F3D10A6871
:100C700092033FD5012000902048026842F0040210
:100C80000260026842F002020260026842F0010261
:100C9000026019482430026842F080520260C21497
:100CA000174802604268D206FCD413480830026834
:100CB00002600268026002680260026822F47D023B
:100CC0000260026842F4110202600A6842F0807217
:100CD0000A600A689201FCD5016821F003010160F5
:100CE000016841F0030101600168C1F3810103293A
:100CF000FAD10CBD00900CBD00380240003C02400F
:100D0000007000404FF0E0210428086903D020F073
:100D100004000861704740F00400FAE770470000E3
:100D2000104810B5016841F4807101600D49083127
:100D30000A680D4B1A400A6002680C4B1A400260A8
:100D4000026822F480220260086820F47D000860B6
:100D5000091D00200860FFF773FF05494FF0006090
:100D6000086010BD003802400CC0FF88FEFFFEEE98
:100D700008ED00E010B50E4C0121204600F07DF892
:100D8000002814D00121204600F06AF809490878AB
:100D9000401C10F0FF00087009D0002008700120EE
:100DA00048702046BDE81040002100F05CB810BD3E
:100DB000000400404700002010B50F4C01212046E0
:100DC00000F05BF8002816D00121204600F048F81A
:100DD0000A480B4A8178491CC9B2817092F87B207D
:100DE0008A4208D800218170E1134FEA7430BDE8CF
:100DF0001040FFF75DBE10BD000800404700002016
:100E0000540000207FB50C46054601210420FFF761
:100E1000A9FEADF800400020104CADF80800ADF878
:100E2000020001956946204600F03CF80122114677
:100E3000204600F02EF81E208DF80C0001218DF8C0
:100E40000D1003208DF80E008DF80F1003A8FFF78A
:100E500049FE0121204600F006F87FBD0008004051
:100E6000C943018270470029018802D041F0010185
:100E700001E021F001010180704702460020138A41
:100E800092890B4202EA010202D0002A00D001201E
:100E90007047002A828901D00A4300E08A43828198
:100EA000704700000288B0F1804F08D00F4B984285
:100EB00005D00F4B984202D00E4B984203D122F03E
:100EC00070034A881A430C4B984206D00B4B984249
:100ED00003D022F440730A891A4302804A68C2622E
:100EE00009880185012181827047000000040040CB
:100EF00000080040000C00400010004000140040BA
:100F000010B5094C40F22551204600F037F8002872
:100F100008D0204600F0C0F8054A044B51785854D8
:100F2000491C517010BD0000003801403401002000
:100F30004500002010B5094C40F22551204600F034
:100F40001DF8002808D0204600F0A6F8054A044BFA
:100F500011785854491C117010BD00000048004021
:100F6000D0000020450000200029818902D041F4F2
:100F7000005101E021F400518181704730B501F04A
:100F80001F0201240025C1F3421304FA02F2012BCF
:100F90000FD0022B0FD0838A4FEA11210088134211
:100FA00004FA01F400EA040001D000B1012528464A
:100FB00030BD8389F0E7038AEEE710B5C1F3421331
:100FC00001F01F040121A140012B07D0022B07D003
:100FD0001430002A026805D00A4304E00C30F8E718
:100FE0001030F6E78A43026010BD00007FB504466A
:100FF000008A0D4620F44051E88808432082A089E9
:1010000041F20C618843A9882A8911436A89024305
:101010001143A181A08A20F44071A8890843A082CD
:101020006846FFF7B7FD1B48844201D1039800E0F2
:101030000298A1890904002900EBC00101EB00100E
:10104000296802DA4FEA410101E04FEA8101B0FB71
:10105000F1F06422B0FBF2F14FEA01114FEA1113F3
:101060006FF018056B4300EB8300A3891D044FF05C
:10107000320306D503EBC000B0FBF2F000F007002E
:1010800005E003EB0010B0FBF2F000F00F000843A6
:1010900020817FBD003801408088C0F30800704780
:1010A00006490B1D05E00A885206FCD510F9012BF4
:1010B0001A800278002AF6D17047000000380140FB
:1010C000FEE700000FB4054B10B503A9044A0298CF
:1010D00000F017F810BC5DF814FB00006112000866
:1010E0005000002002E008C8121F08C1002AFAD1EF
:1010F00070477047002001E001C1121F002AFBD198
:1011000070472DE9F84F99469246884605460027D4
:1011100059E0252801D0514623E0002315F8011F8E
:1011200018462E2915D115F8011F04232A290DD0A0
:101130006FF02F022978A1F13004092C09D800EBB7
:10114000800002EB400008446D1CF3E758F8040BE4
:101150006D1C2A7872B3632A08D0732A10D05146C6
:1011600010464A46904707F101072BE018F8042B78
:101170008DF8002000218DF801106E46012103E05A
:1011800058F8046B4FF0FF315A074FF0000401D4B8
:1011900009E0641C84420BDA8C42FADB325D002ADF
:1011A000F7D105E0641C8C42FCDB305D0028F9D1EE
:1011B000274405E00AE016F8010B51464A469047DD
:1011C000641EF8D26D1C28780028A2D13846BDE8EC
:1011D000F88F000010B56FF00400FFF793FD094889
:1011E00009490068B0FBF1F0C1B2084801EB4102C7
:1011F0000170C2EBC1114FF6FF7202EAC1014180DA
:1012000010BD00002800002000127A004A000020D3
:101210000849498848434FF0E0214861002088612F
:1012200001220A610A69D30701D0D203FAD5086105
:10123000886170474A0000200849097848434FF008
:10124000E02148610020886101220A610A69D30710
:1012500001D0D203FAD50861886170474A000020A6
:1012600004490A885206FCD5024A41B2121D118077
:10127000704700000048004086B014222BA1684649
:10128000FEF76CFFFFF7A6FFFFF718FCFFF728FB40
:101290000028FBD14FF41654204600F0CBF820462E
:1012A00000F068F840F67F4141F28730FFF7AAFD71
:1012B00023A0FFF7F5FEFFF713F824A0FFF7F0FED9
:1012C000FFF77EF925A0FFF7EBFEFEF77DFF274D28
:1012D0000A244FF4FA762549491C481EFFF745FBBE
:1012E0002878B0FBF4F104FB110001F130028DF815
:1012F0000E2030308DF80F006978B1FBF4F000F16A
:10130000300204FB10108DF8102030308DF81100E1
:101310006846FFF7C5FE694615A0FFF751FA30464B
:10132000FFF776FFFFF7E8F9D5E7000036413237DF
:10133000324231463534314646463132333400008C
:10134000424339352D494E49540A0000424339354C
:101350002D5044504143540A0000000042433935A7
:101360002D436F6E5544500A00000000000000201D
:10137000390000002DE9F041804688B001210220AB
:10138000FFF7E4FB01218804FFF7ECFB274F07225E
:101390000A213846FFF771FB07220B213846FFF779
:1013A0006CFB02268DF8046038158DF8056000246A
:1013B00000908DF8064001258DF8075069463846A3
:1013C000FFF728FBE80200908DF804606946384674
:1013D000FFF720FB27208DF818008DF819508DF8A5
:1013E0001A508DF81B5006A8FFF77CFBADF80C4097
:1013F000ADF80E40ADF81040ADF814400C200C4C88
:10140000ADF81200CDF8088002A92046FFF7EEFDE6
:10141000012240F225512046FFF7CFFD0121204651
:10142000FFF7A2FD08B0BDE8F08100000004024013
:10143000004800402DE9F0418046012188B008466F
:10144000FFF784FB01218803FFF798FB274F072252
:1014500009213846FFF711FB07220A213846FFF71A
:101460000CFB02258DF8045078158DF805500024EA
:1014700000908DF8064001268DF8076069463846D1
:10148000FFF7C8FA680200908DF8045069463846A4
:10149000FFF7C0FA25208DF8180003208DF81900F9
:1014A0008DF81A008DF81B6006A8FFF71BFBADF83E
:1014B0000C40ADF80E40ADF81040ADF814400C20D3
:1014C0000B4CADF81200CDF8088002A92046FFF7BA
:1014D0008DFD012240F225512046FFF76EFD0121CE
:1014E0002046FFF741FD08B0BDE8F0810000024052
:1014F00000380140141500080000002054000000CE
:10150000E41000086815000854000020440500009D
:10151000F4100008000000000000000000000000BF
:10152000030406080C10182030000000000102031C
:101530000401020304060708090000000048E8014E
:10154000030406080C101820300000000000000002
:101550000001020304060708090000000000000063
:08156000000000000000000083
:0400000508000125C9
:00000001FF
