:020000040800F2
:1000000098040020090100089F0C0008750C0008E6
:100010009D0C0008270A0008751300080000000066
:10002000000000000000000000000000450E000875
:10003000970B000800000000050D00083D0F0008A8
:100040002301000823010008230100082301000800
:1000500023010008230100082301000823010008F0
:1000600023010008230100082301000823010008E0
:1000700023010008230100082301000823010008D0
:1000800023010008230100082301000823010008C0
:1000900023010008230100082301000823010008B0
:1000A00023010008230100082301000823010008A0
:1000B00023010008950F00083510000823010008EF
:1000C0002301000823010008230100082301000880
:1000D000230100089911000823010008E11100081C
:1000E0002301000823010008230100082301000860
:1000F00023010008DFF80CD000F00EFB0048004799
:100100006D1C0008980400200648804706480047F8
:10011000FEE7FEE7FEE7FEE7FEE7FEE7FEE7FEE7B7
:10012000FEE7FEE7410F0008F500000830B5054680
:100130002A460B4612F8010B13F8014B08B1A042F6
:10014000F8D01CB1002802D06D1CF1E7284630BD64
:100150002DE9FE4F81EA030404F0004421F0004140
:1001600000944FF0000B23F0004350EA010402D04A
:1001700052EA030404D10020014603B0BDE8F08F29
:10018000C3F30A54C1F30A552C44A4F2F334019486
:10019000A0FB0254C1F3130141F48011C3F3130314
:1001A00043F4801301FB024400FB034E840A970AC8
:1001B00044EA815447EA8357A4FB076802958D0AF5
:1001C00005FB07854FEA932C04FB0C542705029D81
:1001D0004FEA065847EA1637B5EB08056EEB070CF1
:1001E000870E920E47EA811742EA8312A7FB0201AB
:1001F000B6EB0B0164EB00042B0D43EA0C335E18E5
:1002000044EB1C50DA465146E7FB0201C5F31304E8
:100210004FEA0B3343EA14534FEA0432019C43EA9A
:100220000603A4F10C040294009CCDE900B400F094
:10023000DEF8A2E770B521F0004303430CD0C1F310
:100240000A550024D5EB040564EB0403D617AD1A58
:10025000B34102DB0020014670BD201841EB025182
:1002600070BD0EB540F2334102910021CDE900117D
:100270000A460B4600F0BBF803B000BD00F0004298
:1002800030F000400AD0C10D01F56071C0F31600D6
:1002900042EA0151C208400711437047002001465D
:1002A000704701F0004330B421F0004150EA0102F0
:1002B00006D00A0DA2F56072C1F31301002A02DC18
:1002C00030BC00207047440F44EAC104C100E0186C
:1002D00030BC00EBC25000F047B830B50B460146C9
:1002E00000202022012409E021FA02F59D4205D3D5
:1002F00003FA02F5491B04FA02F52844151EA2F17F
:100300000102F1DC30BD2DE9F05F05460020924688
:100310009B4688460646814640241BE028464146C7
:100320004746224600F019FA53465A46C01A9141F0
:1003300010D311461846224600F000FA2D1A67EB3A
:1003400001084F4622460120002100F0F7F917EB83
:1003500000094E41201EA4F10104DFDC484631466D
:100360002A464346BDE8F09F0029A8BF7047401CBD
:10037000490008BF20F00100704710B4B0FA80FCBB
:1003800000FA0CF050EA010404BF10BC704749B1F8
:10039000CCF1200421FA04F411FA0CF118BF012168
:1003A00021430843A3EB0C01CB1D0106000A002BDF
:1003B000BEBF002010BC704700EBC35010440029A2
:1003C000A4BF10BC7047401C490008BF20F00100CA
:1003D00010BC704710B5002B08DA401C41F1000139
:1003E00092185B411A4301D120F0010010BD2DE9A4
:1003F000F04D92469B4611B1B1FA81F202E0B0FA9B
:1004000080F22032904600F099F904460F4640EA07
:100410000A0041EA0B0153465A46084303D12046DD
:100420003946BDE8F08D114653EA010015D0C8F1F8
:100430004002504600F091F905460E465046594696
:10044000424600F07BF9084301D0012000E0002083
:10045000054346EAE0762C4337430A984FEA445373
:10046000A0EB08004FEAD4240A304FF0000244EA1F
:1004700047544FEAD72502D500200146D1E70105B0
:1004800010196941DDE9084500196941BDE8F04DE1
:10049000A0E72DE9FE4F804681EA0300C00F0C461D
:1004A000009021F0004123F00045B8EB0200A94183
:1004B00005D24046214690461C460B46024623F094
:1004C0000040104304D14046214603B0BDE8F08F00
:1004D000270DC7F30A00C3F30A510290401A019096
:1004E000402866DAC3F3130040F4801B009892465C
:1004F00020B10023D2EB030A63EB0B0B01985946A2
:10050000C0F14002504600F019F906460D4650462B
:100510005946019A00F031F910EB080061410024BE
:1005200087EA115284EAE7731A433BD0009A3AB340
:10053000019A012A4FEA075210DC001B61EB02010D
:100540004FF0004202EA0752CDE90042001C41F59B
:10055000801132462B46FFF74AFFB6E7001B61EBDE
:100560000201001C41F5801300185B412018A2F520
:10057000001747EB030140EAD570B6196D4111E051
:100580006D084FEA360645EAC0754FEA0752001B70
:1005900061EB0201001C41F5801149084FEA30006F
:1005A0000019514132462B4603B0BDE8F04FFFF72A
:1005B00011BF0098012240000023D0EB020263EB40
:1005C000E073009821464FEAE074B8EB000061EB5D
:1005D0000401E9E783F000435BE781F0004158E75D
:1005E0002DE9F04D81EA030404F0004B21F00045B1
:1005F00014464FF0000A23F0004150EA050220D0D3
:1006000054EA01021DD0C5F30A570246C5F313038D
:10061000C1F31300C1F30A5640F4801543F480136C
:10062000A7EB0608101BD64608F2FD3873EB050051
:1006300002D308F1010801E092185B41B8F1000F04
:1006400003DA00200146BDE8F08D00204FF4801150
:10065000064684460EE0171B73EB050705D3121BF5
:1006600063EB050306434CEA010C49084FEA3000EE
:1006700092185B4150EA0107EDD152EA030012D013
:1006800082EA040083EA0501084303D100224FF007
:10069000004308E0101BAB4102D20122002302E01C
:1006A0006FF0010253101AEB06004CEB085110EBEF
:1006B0000A0041EB0B01BDE8F04DFFF78BBEC1F323
:1006C0000A52C1F3130140F2FF3341F480119A4200
:1006D00002DA00200146704740F233439A42A2F208
:1006E000334202DC524200F038B800F027B8000074
:1006F00030B5002904DB4FF00044404264EB0101B7
:10070000002B04DB4FF00044524264EB0303994298
:1007100008BF904230BD0000064C074D06E0E0687F
:1007200040F0010394E8070098471034AC42F6D338
:10073000FFF7E4FC941E0008B41E0008202A04DB26
:10074000203A00FA02F1002070479140C2F12003E4
:1007500020FA03F3194390407047202A04DB203A23
:1007600021FA02F00021704721FA02F3D040C2F1D1
:1007700020029140084319467047202A06DBCB1718
:10078000203A41FA02F043EAE07306E041FA02F34C
:10079000D040C2F120029140084319467047002919
:1007A000816802D041F0010101E021F00101816086
:1007B00070470000F0B5354E93B0304600F082F837
:1007C0000121480200F0B8FA0121080600F09CFA65
:1007D0002F4F384600F040F92C4801A958300090BE
:1007E0002C480024012531C128020494CDE905409C
:1007F00080000790202008900002CDE90904694696
:10080000384600F0ABF90121384600F019F9012112
:10081000084600F079FA03208DF8480011958DF80C
:100820004B4011A91C4800F0B7F9012000F004FB6F
:10083000212000F0EDFA0028FAD08DF830508DF824
:1008400031500D940F948DF840500BA9304600F0B4
:1008500053F8002301221946304600F073F80121B5
:10086000304600F025F80121304600F017F801214C
:100870003046FFF794FF4021304600F035F800285D
:10088000F9D0304600F0CAF813B0F0BD00240140A2
:100890000860024026000020000002400029816814
:1008A00002D041F4807101E021F4807181607047D1
:1008B0000029816802D041F4007101E021F4007147
:1008C00081607047074910B588420AD1441501215B
:1008D000204600F03DFA2046BDE81040002100F01F
:1008E00037BA10BD002401400246002012680A42B7
:1008F00000D001207047000030B542680F4B0C79E2
:100900001A400B6842EA04221343436082680C4B8E
:100910004D791A40D1E9034323438C6844EA4504E6
:10092000234313438360026B097D22F0F872491E52
:10093000C9B242EA0151016330BD0000FFFEFFFC75
:10094000FDF7FFC070B507241D290AD9C56DA1F1B7
:100950001E0606EB4606B440A543B3401D43C565DD
:1009600021E013290AD9C568A1F1140606EB460651
:10097000B440A543B3401D43C56014E009290AD91A
:100980000569A1F10A0606EB4606B440A543B3404B
:100990001D43056107E0456901EB4106B440A543ED
:1009A000B3401D4345611F23072A09D2046C521E20
:1009B00002EB820293409C4391400C43046470BD5F
:1009C0000D2A09D2C46BD21F02EB820293409C43D2
:1009D00091400C43C46370BD132A09D2846B0D3A55
:1009E00002EB820293409C4391400C43846370BDB0
:1009F000192A09D2446B133A02EB820293409C43BA
:100A000091400C43446370BD046B193A02EB8202BF
:100A100093409C4391400C43046370BD816841F056
:100A2000804181607047FEE7C10002D402494860FE
:100A30007047024908607047006002400464024049
:100A40000029016802D041F0010102E04FF6FE7278
:100A5000114001607047000001684FF6FE721140BE
:100A600001600021016041608160C1603149314A0B
:100A70000839904203D1486840F00F0006E02D4A43
:100A80001432904204D1486840F0F000486070474A
:100A9000284A2832904203D1486840F47060F5E754
:100AA000244A3C32904203D1486840F47040EDE75C
:100AB000204A5032904203D1486840F47020E5E764
:100AC0001C4A6432904203D1486840F47000DDE76C
:100AD000184A7832904203D1486840F07060D5E7F8
:100AE000154A111F904203D1086840F00F0006E03C
:100AF000114A1432904204D1086840F0F0000860B6
:100B000070470D4A2832904203D1086840F4706063
:100B1000F5E7094A3C32904203D1086840F470403E
:100B2000EDE7054A50329042EAD1086840F470205F
:100B3000E5E700000860024008640240014600202A
:100B4000CA0001D4034A00E0034A12680A4200D0F6
:100B500001207047006002400064024030B5036825
:100B600047F6F07293430C6A8A682243D1E9044540
:100B70002C4322438C692243CC6922434C6A224392
:100B80008C6A22431A430260CA6842600A68826023
:100B90004968C16030BD7047F0B5002301244FF0B3
:100BA000030E00BF0D6804FA03F21540954222D1EE
:100BB00006685D000EFA05FC0F7926EA0C06AF40C8
:100BC000374307600E79012E01D0022E0CD18668C2
:100BD0004F7926EA0C06AF403743876086889643F4
:100BE0008A799A4032438280C668CA7926EA0C061E
:100BF000AA403243C2605B1C102BD3D3F0BD4B071D
:100C0000DB0E9A40C90810B500EB8100016A0F2481
:100C10009C40A1430162016A1143016210BD828AB6
:100C20004A4082827047000010B50220FFF786FF1D
:100C300010B10220FFF7F8FE0C4800880B4CA41EF0
:100C400020802088FFF70DFB4FF06632084BFFF73E
:100C50007FFA6FF00B02FFF7EDFA0122FFF7EAFAD5
:100C6000FFF71FFBA060A06810BD00002600002059
:100C700066660A40FEE700001CB50121084600F048
:100C800043F801208DF8040048F202000090694604
:100C90000148FFF781FF1CBD00000240FEE77047DE
:100CA00070B50F21C478027801234FF0E026E4B13B
:100CB000124C246804F4E064C4F5E064C4F307242F
:100CC000C4F10405E1404478AC4085780D402543EB
:100CD0000B4C29011155007800F01F018B40400991
:100CE00006EB8000C0F8003170BD02F01F008340A9
:100CF000500906EB8000C0F8803170BD0CED00E0BB
:100D000000E400E070470000044A0029116801D0A7
:100D1000014300E081431160704700001C3802402D
:100D2000044A0029116801D0014300E081431160A9
:100D30007047000024380240044A0029116801D09D
:100D4000014300E0814311607047000020380240F9
:100D5000044A0029116801D0014300E08143116079
:100D6000704700001438024030B5254A1168A2F1DE
:100D7000040411F00C034FF4004105D0042B09D0FA
:100D8000082B09D00C2B09D02368C3F342335B1C1A
:100D9000994018E01B4916E01B4914E011681368DC
:100DA00001F47011194C03F4400304EB91410978EC
:100DB000012404EB9353146814F4803F1DD0124CAB
:100DC0006143B1FBF3F1016011680F2303EA1111D4
:100DD0000E4B09335C5C0168E140416014680725F3
:100DE00005EA14241C5D21FA04F48460126805EA03
:100DF000D2229A5CD140C16030BD024CE0E70000D5
:100E0000083802400024F40000127A000400002098
:100E1000014600204A09012A09D0064A126801F059
:100E20001F0101238B40134200D001207047014A6B
:100E3000343AF3E734380240014908607047000053
:100E4000000047427047000030B50A49074A0020B9
:100E5000074B141D097806E015886D06FCD51D5C4E
:100E60002580401CC0B28842F6D330BD0048004007
:100E7000300000201D0000200CB500202C490190FE
:100E800000900A6842F480320A604FF4A0430A6876
:100E900002F400320092019A521C0192009A12B997
:100EA000019A9A42F3D10A6892033FD5012000903B
:100EB0002048026842F004020260026842F0020226
:100EC0000260026842F001020260194824300268A0
:100ED00042F080520260C214174802604268D20693
:100EE000FCD413480830026802600268026002689D
:100EF0000260026822F47D020260026842F411027C
:100F000002600A6842F080720A600A689201FCD5A9
:100F1000016821F003010160016841F003010160F3
:100F20000168C1F381010329FAD10CBD00900CBD09
:100F300000380240003C0240007000407047000052
:100F4000104810B5016841F4807101600D49083105
:100F50000A680D4B1A400A6002680C4B1A40026086
:100F6000026822F480220260086820F47D00086094
:100F7000091D00200860FFF77FFF05494FF0006062
:100F8000086010BD003802400CC0FF88FEFFFEEE76
:100F900008ED00E010B50E4C0121204600F0A7F846
:100FA000002814D00121204600F094F8094908785F
:100FB000401CC0B20870022809D30020087001202C
:100FC00048702046BDE81040002100F086B810BDF2
:100FD000000400401E0000207FB50C46054601219C
:100FE0000220FFF79DFE0195ADF800400024104D52
:100FF000ADF80840ADF802406946284600F08CF88C
:1010000001221146284600F07EF81D208DF80C00C4
:101010008DF80D4003208DF80E0001208DF80F0093
:1010200003A8FFF73DFE0021284600F056F87FBDDB
:101030000004004010B50E4C0121204600F057F886
:10104000002813D00121204600F044F80948817897
:10105000491C11F0FF01817008D0002181704FEA16
:101060007430BDE810400221FFF7D9BD10BD00006B
:10107000000800401E0000207FB50C4605460121F7
:101080000420FFF74DFEADF800400020104CADF8F5
:101090000800ADF8020001956946204600F03CF8D2
:1010A00001221146204600F02EF81E208DF80C007B
:1010B00001218DF80D1003208DF80E008DF80F1012
:1010C00003A8FFF7EDFD0121204600F006F87FBDE3
:1010D00000080040C943018270470029018802D0FE
:1010E00041F0010101E021F0010101807047024659
:1010F0000020138A92890B4202EA010202D0002AE0
:1011000000D001207047002A828901D00A4300E004
:101110008A438281704700000288B0F1804F08D076
:101120000F4B984205D00F4B984202D00E4B98427D
:1011300003D122F070034A881A430C4B984206D020
:101140000B4B984203D022F440730A891A43028061
:101150004A68C262098801850121818270470000C6
:101160000004004000080040000C00400010004057
:101170000014004070B5074C05468021204600F061
:101180004DF80028F9D029462046BDE8704000F00F
:10119000DDB800000038014010B50C4C40F225517C
:1011A000204600F042F800280FD001210848FFF740
:1011B00094FF084900200870204600F0C3F8074A51
:1011C000054B11785854491C117010BD003801406E
:1011D000000400401E000020300000201D00002000
:1011E00010B5084C40F22551204600F01EF80028AA
:1011F00007D0204600F0A6F8BDE81040C0B2FFF7C7
:10120000B9BF10BD004800400029818902D041F4D7
:10121000005101E021F40051818170470246002015
:1012200012880A4200D00120704730B501F01F0239
:1012300001240025C1F3421304FA02F2012B0FD05E
:10124000022B0FD0838A4FEA11210088134204FA3F
:1012500001F400EA040001D000B10125284630BDA8
:101260008389F0E7038AEEE710B5C1F3421301F07A
:101270001F040121A140012B07D0022B07D01430FD
:10128000002A026805D00A4304E00C30F8E7103069
:10129000F6E78A43026010BD7FB50446008A0D461A
:1012A00020F44051E88808432082A08941F20C6173
:1012B0008843A9882A8911436A8902431143A1817D
:1012C000A08A20F44071A8890843A0826846FFF7ED
:1012D0004BFD1B48844201D1039800E00298A1898C
:1012E0000904002900EBC00101EB0010296802DAB3
:1012F0004FEA410101E04FEA8101B0FBF1F06422C5
:10130000B0FBF2F14FEA01114FEA11136FF018052B
:101310006B4300EB8300A3891D044FF0320306D515
:1013200003EBC000B0FBF2F000F0070005E003EBB8
:101330000010B0FBF2F000F00F00084320817FBDE9
:10134000003801408088C0F308007047C1F30801ED
:101350008180704706490B1D05E00A885206FCD5BE
:1013600010F9012B1A800278002AF6D1704700008C
:1013700000380140FEE700000FB4084B10B504A987
:1013800002AA039800F0CAF8044602A9002000F05F
:1013900068FC204610BC5DF814FB0000631C0008CC
:1013A00002E008C8121F08C1002AFAD1704770472E
:1013B000002001E001C1121F002AFBD1704700008C
:1013C0002DE9FF5FDDE90220010DDDF838B00243B1
:1013D00010D10F9801244CA2012808D000210098B8
:1013E0000F9BC0E90021C0E90243BDE8FF9F6FEAFF
:1013F0000B01F4E7A1F2FF3144F6105041430D1404
:101400000F9801280ED0A5EB0B00401C4FF00004F4
:101410003E4EDFF8FC90B0F1000AA04605DACAF1B2
:10142000000717E0CBF10000F0E7074612E0F807ED
:1014300007D02246334640464946FEF789FE80469D
:1014400089462246334610461946FEF781FE044679
:101450000E467F10002FEAD1DDE90201BAF1000F3C
:1014600042464B4602DAFEF773FE01E0FFF7B8F89A
:1014700004460E460022274BFFF73AF903D84FF0F7
:10148000FF30014607E00022234B20463146FFF79C
:1014900000F8FFF714F9102409E0002C0ADB0A22F7
:1014A0000023FEF730FF019B30321A55641E50EACC
:1014B0000102F2D1641C019AC4F1110314440F9A81
:1014C000012A09D00122084301D15B450FDD4FF00D
:1014D000000205F101050DE0084303D1A3EB0B0564
:1014E0006D1E09E000204FF0110B0F9088E701DA24
:1014F00000226D1E002A83D000980F99C0E90231A6
:10150000C0E9004571E70000300000000000244001
:101510000000F03F0000F0430000E03F2DE9FF4FE6
:1015200095B09B4689460646002512E2252878D1CB
:101530000024761CF94A2746012105943378203B84
:1015400001FA03F0104202D00443761CF6E730782B
:101550002A2811D06FF02F033078A0F13002092A29
:1015600016D8059A44F0020402EB820203EB420211
:101570001044761C0590EFE759F8042B0592002AD9
:1015800003DA504244F40054059044F00204761CFF
:1015900030782E2816D116F8010F44F004042A28BA
:1015A0000DD06FF02F023078A0F13003092B09D84D
:1015B00007EB870302EB4303C718761CF3E759F8E0
:1015C000047B761C30786C280FD006DC4C2817D0B2
:1015D00068280DD06A2814D104E0742810D07A2825
:1015E0000FD10DE044F400140AE044F4801401E04B
:1015F00044F440147278824202D1761C04F58014BF
:10160000761C307866280BD013DC582877D009DC9C
:10161000002875D04528F6D04628F4D047281AD19E
:101620009FE118E0632835D0642879D0652812D16D
:1016300097E1702873D008DC6728F1D069286FD053
:101640006E280DD06F2806D1B5E073282CD07528F0
:1016500075D0782874D05A46179990476D1C76E15A
:10166000C4F30250022809D003280DD0D9F8001085
:1016700004280DD00D6009F1040968E1D9F80010C3
:10168000EA17C1E90052F6E7D9F800100D80F2E739
:101690000D70F0E719F8041B8DF8001000208DF88C
:1016A0000100EA46012003E059F804AB4FF0FF3097
:1016B00061074FF0000102D40DE008F101018846F6
:1016C000B9420FDA8045F8DB1AF808100029F4D186
:1016D00008E008F1010188468142FADB1AF8081097
:1016E0000029F6D105985B46A0EB0807214638464D
:1016F000179A00F09EFA284400EB080507E04DE039
:101700002BE10DE01AF8010B5A4617999047B8F1F2
:101710000108F7D25B4621463846179A14E142E0A9
:101720000A220092C4F302524FF0000A022A08D0A3
:1017300059F804CB032A4FEAEC710AD00DE029E0F6
:101740002AE009F1070121F00702F2E802C19146FF
:1017500009E00FFA8CFC4FEAEC71042A03D14FFA2E
:101760008CFC4FEAEC71002907DA0A460021DCF113
:10177000000C61EB02012D2202E0220504D52B2290
:101780008DF80420012203E0E20701D02022F7E7D0
:10179000904653E00A2102E010220DE010214FF0A4
:1017A000000A00910BE010224FF0000A44F00404FC
:1017B0000827009203E008224FF0000A0092C4F3C9
:1017C0000252022A05D059F804CB0021032A08D07E
:1017D00009E009F1070121F00702F2E802C1914690
:1017E00005E01FFA8CFC042A01D10CF0FF0C4FF02D
:1017F0000008220722D5702827D0009B83F0100311
:1018000053EA0A0309D15CEA010206D030228DF8BE
:1018100004208DF8050002229046009B83F0080307
:1018200053EA0A030AD15CEA010201D1620705D535
:1018300030228DF804204FF001087F1E582809D06F
:1018400037A003900EA8029013E040228DF80420E8
:101850000122E1E737A0F4E753466046009AFEF71D
:1018600052FD84460398825C0298A0F10100029028
:1018700002705CEA0100EFD1029806A9A1EB00001A
:1018800000F1200A600702D524F4803400E001272B
:10189000574502DDA7EB0A0000E0002000EB0A013B
:1018A000009005984144A0EB01000590E00306D4A8
:1018B0005B462146179A059800F0BBF905440027BE
:1018C00006E001A85A46C05D179990476D1C7F1C21
:1018D0004745F6DBE0030CD55B462146179A059891
:1018E00000F0A7F9054404E030205A4617999047C4
:1018F0006D1C0099481E00900029F5DC08E0029854
:1019000002995A460078491C0291179990476D1C1C
:10191000BAF10001AAF1010AF1DC6BE1092801002A
:101920003031323334353637383961626364656655
:101930000000000030313233343536373839414217
:10194000434445460000000000F060F9054406F1FC
:101950000106307800287FF4E9AD19B02846BDE8CB
:10196000F08F620700D4062709F1070222F0070C66
:10197000FCE80223E14603F000485FEA080C02D0CD
:101980000FF27C2C0DE05FEA045C02D50FF2742CA0
:1019900007E05FEAC47C02D00FF26C2C01E0AFF2EA
:1019A000700C4FF0FF3823F00043CDF850C065288D
:1019B0000CD006DC452809D046281DD047283ED14A
:1019C0003EE0662818D0672839D139E00021112F70
:1019D00001DB112000E0781CCDE9000106A90EA86A
:1019E000FFF7EEFCDDE90F010E9A03910021009252
:1019F00007F1010A04914EE04FF000400097CDE955
:101A0000011006A90EA8FFF7DBFCDDE90F02039227
:101A10000E9B11990022DDF80CA00093049219B9D5
:101A200007F1010100EB010AB7EB0A0004D4C0F191
:101A3000FF3007F1010A0490AAEB0700019046E08D
:101A4000012F00DA01270021112F01DD112000E014
:101A50003846CDE9000106A90EA8FFF7B1FCDDE983
:101A60000F010E9A0391002104910092BA462107BA
:101A70000CD40399514500DA8A46BAF1010F05DD0D
:101A8000009AAAF10101515C302908D0B84202DA6B
:101A900010F1040F06DA0121CDE9011017E0AAF1D7
:101AA0000101E9E7002805DC049901440491AAEB4F
:101AB000000102E0411C514500DD8A460499A0EB7B
:101AC000010000F1010001904FF00040029020075A
:101AD00004D40198504501DBCDF8048000208DF836
:101AE0004F0002980DF14F07B0F1004F25D02B2089
:101AF0000E9002984FF0020800280CDA4042029043
:101B00002D200E9007E00A210298FEF7E6FB303107
:101B1000029007F8011DB8F10001A8F10108F2DCFC
:101B200002980028EFD1791E0E980870307800F0E6
:101B3000200040F0450007F8020D12A8A0EB0700B6
:101B400000F107081498007800B1012000EB0A01A9
:101B5000019801EBE07105984144A0EB0100A0F170
:101B600001000590E00306D45B462146179A0598CC
:101B700000F05FF805441498007820B15A46179990
:101B8000904705F10105E00323D55B462146179AEE
:101B9000059800F04EF805441BE00498002807DB88
:101BA000DDE90301884203DD0098405C179901E0FC
:101BB000179930205A46904704986D1C401C049099
:101BC0000198401E019004D12E205A461799904743
:101BD0006D1CBAF10001AAF1010ADEDC05E017F87C
:101BE000010B5A46179990476D1CB8F10001A8F1F6
:101BF0000108F4DC5B462146179A0598A4E600002C
:101C00002D0000002B000000200000002DE9F04115
:101C1000044600251E461746880405D406E03946CA
:101C20002020B04705F10105641EF8D52846BDE81F
:101C3000F0812DE9F041044600251E469046C80378
:101C400001D5302700E02027880405D506E041466D
:101C50003846B04705F10105641EF8D52846BDE8B1
:101C6000F0810A68531C0B60107070470EB5FFF7C7
:101C700003F8FEF79FFD4FF41654204600F0AAF833
:101C8000204600F047F840F67F4421466320FFF7E6
:101C9000A3F9214641F28730FFF7EEF9124C134FBA
:101CA000134E00252078D8B112A11448FEF73EFA51
:101CB00090B113A0FFF74EFB3068FEF7DFFA024643
:101CC0000B4611A16846FFF757FB6846FFF742FB3A
:101CD0000FA0FFF73FFB01E0FFF7B6F825703D705E
:101CE000FEF7A2FF3060DDE71F0000201D0000208E
:101CF0000000002041542B56424154003000002087
:101D0000564241543D00000025302E32660000004E
:101D1000560D0A002DE9F041804688B001210220CD
:101D2000FEF7F2FF01218804FEF7FAFF274F072292
:101D30000A213846FEF763FF07220B213846FEF7DB
:101D40005EFF02268DF8046038158DF805600024CA
:101D500000908DF8064001258DF8075069463846F9
:101D6000FEF71AFFE80200908DF8046069463846D5
:101D7000FEF712FF27208DF818008DF819508DF806
:101D80001A508DF81B5006A8FEF78AFFADF80C40DC
:101D9000ADF80E40ADF81040ADF814400C200C4CDE
:101DA000ADF81200CDF8088002A92046FFF774FABA
:101DB000012240F225512046FFF756FA0121204624
:101DC000FFF722FA08B0BDE8F081000000040240ED
:101DD000004800402DE9F0418046012188B00846C6
:101DE000FEF792FF01218803FEF7A6FF274F072287
:101DF00009213846FEF703FF07220A213846FEF77D
:101E0000FEFE02258DF8045078158DF8055000244B
:101E100000908DF8064001268DF807606946384627
:101E2000FEF7BAFE680200908DF804506946384605
:101E3000FEF7B2FE25208DF8180003208DF819005A
:101E40008DF81A008DF81B6006A8FEF729FFADF883
:101E50000C40ADF80E40ADF81040ADF814400C2029
:101E60000B4CADF81200CDF8088002A92046FFF710
:101E700013FA012240F225512046FFF7F5F901211E
:101E80002046FFF7C1F908B0BDE8F081000002402C
:101E900000380140B41E000800000020300000009F
:101EA000A0130008E41E00083000002068040000B1
:101EB000B013000800000000030406080C101820EE
:101EC00030000000000102030401020304060708B9
:101ED00009000000000000000000000000000000F9
:041EE00000000000FE
:04000005080000F5FA
:00000001FF
